{
  "contractName": "PartyToken",
  "abi": [
    {
      "inputs": [
        {
          "internalType": "address",
          "name": "initialTotalSupplyHolder",
          "type": "address"
        }
      ],
      "stateMutability": "nonpayable",
      "type": "constructor"
    },
    {
      "anonymous": false,
      "inputs": [
        {
          "indexed": true,
          "internalType": "address",
          "name": "owner",
          "type": "address"
        },
        {
          "indexed": true,
          "internalType": "address",
          "name": "spender",
          "type": "address"
        },
        {
          "indexed": false,
          "internalType": "uint256",
          "name": "value",
          "type": "uint256"
        }
      ],
      "name": "Approval",
      "type": "event"
    },
    {
      "anonymous": false,
      "inputs": [
        {
          "indexed": true,
          "internalType": "address",
          "name": "previousOwner",
          "type": "address"
        },
        {
          "indexed": true,
          "internalType": "address",
          "name": "newOwner",
          "type": "address"
        }
      ],
      "name": "OwnershipTransferred",
      "type": "event"
    },
    {
      "anonymous": false,
      "inputs": [
        {
          "indexed": true,
          "internalType": "address",
          "name": "from",
          "type": "address"
        },
        {
          "indexed": true,
          "internalType": "address",
          "name": "to",
          "type": "address"
        },
        {
          "indexed": false,
          "internalType": "uint256",
          "name": "value",
          "type": "uint256"
        }
      ],
      "name": "Transfer",
      "type": "event"
    },
    {
      "inputs": [],
      "name": "DOMAIN_SEPARATOR",
      "outputs": [
        {
          "internalType": "bytes32",
          "name": "",
          "type": "bytes32"
        }
      ],
      "stateMutability": "view",
      "type": "function",
      "constant": true
    },
    {
      "inputs": [],
      "name": "PERMIT_TYPEHASH",
      "outputs": [
        {
          "internalType": "bytes32",
          "name": "",
          "type": "bytes32"
        }
      ],
      "stateMutability": "view",
      "type": "function",
      "constant": true
    },
    {
      "inputs": [
        {
          "internalType": "address",
          "name": "owner",
          "type": "address"
        },
        {
          "internalType": "address",
          "name": "spender",
          "type": "address"
        }
      ],
      "name": "allowance",
      "outputs": [
        {
          "internalType": "uint256",
          "name": "",
          "type": "uint256"
        }
      ],
      "stateMutability": "view",
      "type": "function",
      "constant": true
    },
    {
      "inputs": [
        {
          "internalType": "address",
          "name": "spender",
          "type": "address"
        },
        {
          "internalType": "uint256",
          "name": "amount",
          "type": "uint256"
        }
      ],
      "name": "approve",
      "outputs": [
        {
          "internalType": "bool",
          "name": "",
          "type": "bool"
        }
      ],
      "stateMutability": "nonpayable",
      "type": "function"
    },
    {
      "inputs": [
        {
          "internalType": "address",
          "name": "account",
          "type": "address"
        }
      ],
      "name": "balanceOf",
      "outputs": [
        {
          "internalType": "uint256",
          "name": "",
          "type": "uint256"
        }
      ],
      "stateMutability": "view",
      "type": "function",
      "constant": true
    },
    {
      "inputs": [],
      "name": "decimals",
      "outputs": [
        {
          "internalType": "uint8",
          "name": "",
          "type": "uint8"
        }
      ],
      "stateMutability": "view",
      "type": "function",
      "constant": true
    },
    {
      "inputs": [
        {
          "internalType": "address",
          "name": "spender",
          "type": "address"
        },
        {
          "internalType": "uint256",
          "name": "subtractedValue",
          "type": "uint256"
        }
      ],
      "name": "decreaseAllowance",
      "outputs": [
        {
          "internalType": "bool",
          "name": "",
          "type": "bool"
        }
      ],
      "stateMutability": "nonpayable",
      "type": "function"
    },
    {
      "inputs": [
        {
          "internalType": "address",
          "name": "spender",
          "type": "address"
        },
        {
          "internalType": "uint256",
          "name": "addedValue",
          "type": "uint256"
        }
      ],
      "name": "increaseAllowance",
      "outputs": [
        {
          "internalType": "bool",
          "name": "",
          "type": "bool"
        }
      ],
      "stateMutability": "nonpayable",
      "type": "function"
    },
    {
      "inputs": [],
      "name": "initialSupply",
      "outputs": [
        {
          "internalType": "uint256",
          "name": "",
          "type": "uint256"
        }
      ],
      "stateMutability": "view",
      "type": "function",
      "constant": true
    },
    {
      "inputs": [],
      "name": "name",
      "outputs": [
        {
          "internalType": "string",
          "name": "",
          "type": "string"
        }
      ],
      "stateMutability": "view",
      "type": "function",
      "constant": true
    },
    {
      "inputs": [
        {
          "internalType": "address",
          "name": "",
          "type": "address"
        }
      ],
      "name": "nonces",
      "outputs": [
        {
          "internalType": "uint256",
          "name": "",
          "type": "uint256"
        }
      ],
      "stateMutability": "view",
      "type": "function",
      "constant": true
    },
    {
      "inputs": [],
      "name": "owner",
      "outputs": [
        {
          "internalType": "address",
          "name": "",
          "type": "address"
        }
      ],
      "stateMutability": "view",
      "type": "function",
      "constant": true
    },
    {
      "inputs": [],
      "name": "renounceOwnership",
      "outputs": [],
      "stateMutability": "nonpayable",
      "type": "function"
    },
    {
      "inputs": [],
      "name": "symbol",
      "outputs": [
        {
          "internalType": "string",
          "name": "",
          "type": "string"
        }
      ],
      "stateMutability": "view",
      "type": "function",
      "constant": true
    },
    {
      "inputs": [],
      "name": "totalSupply",
      "outputs": [
        {
          "internalType": "uint256",
          "name": "",
          "type": "uint256"
        }
      ],
      "stateMutability": "view",
      "type": "function",
      "constant": true
    },
    {
      "inputs": [
        {
          "internalType": "address",
          "name": "recipient",
          "type": "address"
        },
        {
          "internalType": "uint256",
          "name": "amount",
          "type": "uint256"
        }
      ],
      "name": "transfer",
      "outputs": [
        {
          "internalType": "bool",
          "name": "",
          "type": "bool"
        }
      ],
      "stateMutability": "nonpayable",
      "type": "function"
    },
    {
      "inputs": [
        {
          "internalType": "address",
          "name": "sender",
          "type": "address"
        },
        {
          "internalType": "address",
          "name": "recipient",
          "type": "address"
        },
        {
          "internalType": "uint256",
          "name": "amount",
          "type": "uint256"
        }
      ],
      "name": "transferFrom",
      "outputs": [
        {
          "internalType": "bool",
          "name": "",
          "type": "bool"
        }
      ],
      "stateMutability": "nonpayable",
      "type": "function"
    },
    {
      "inputs": [
        {
          "internalType": "address",
          "name": "newOwner",
          "type": "address"
        }
      ],
      "name": "transferOwnership",
      "outputs": [],
      "stateMutability": "nonpayable",
      "type": "function"
    },
    {
      "inputs": [
        {
          "internalType": "uint256",
          "name": "_amount",
          "type": "uint256"
        }
      ],
      "name": "burnOwnTokens",
      "outputs": [],
      "stateMutability": "nonpayable",
      "type": "function"
    },
    {
      "inputs": [
        {
          "internalType": "address",
          "name": "owner",
          "type": "address"
        },
        {
          "internalType": "address",
          "name": "spender",
          "type": "address"
        },
        {
          "internalType": "uint256",
          "name": "value",
          "type": "uint256"
        },
        {
          "internalType": "uint256",
          "name": "deadline",
          "type": "uint256"
        },
        {
          "internalType": "uint8",
          "name": "v",
          "type": "uint8"
        },
        {
          "internalType": "bytes32",
          "name": "r",
          "type": "bytes32"
        },
        {
          "internalType": "bytes32",
          "name": "s",
          "type": "bytes32"
        }
      ],
      "name": "permit",
      "outputs": [],
      "stateMutability": "nonpayable",
      "type": "function"
    }
  ],
  "bytecode": "0x60806040523480156200001157600080fd5b5060405162001621380380620016218339810160408190526200003491620003dc565b604080518082018252600580825264504152545960d81b602080840182815285518087019096529285528401528151919291620000749160039162000336565b5080516200008a90600490602084019062000336565b505050620000a7620000a16200015f60201b60201c565b62000163565b467f8b73c3c69bb8fe3d512ecc4cf759cc79239f7b179b0ffacaa9a75d522b39400f620000d3620001b5565b805160209182012060408051808201825260018152603160f81b90840152516200012593927fc89efdaa54c0f20c7adf612882df0950f5a951637e0307cdcb4c672f298b8bc69186913091016200040c565b60408051601f19818403018152919052805160209091012060065562000157826a5afd67f2dc0e1b2e0000006200024f565b5050620004da565b3390565b600580546001600160a01b038381166001600160a01b0319831681179093556040519116919082907f8be0079c531659141344cd1fd0a4f28419497f9722a3daafe3b4186f6b6457e090600090a35050565b606060038054620001c6906200049d565b80601f0160208091040260200160405190810160405280929190818152602001828054620001f4906200049d565b8015620002455780601f10620002195761010080835404028352916020019162000245565b820191906000526020600020905b8154815290600101906020018083116200022757829003601f168201915b5050505050905090565b6001600160a01b038216620002815760405162461bcd60e51b8152600401620002789062000438565b60405180910390fd5b6200028f6000838362000331565b8060026000828254620002a3919062000478565b90915550506001600160a01b03821660009081526020819052604081208054839290620002d290849062000478565b90915550506040516001600160a01b038316906000907fddf252ad1be2c89b69c2b068fc378daa952ba7f163c4a11628f55a4df523b3ef90620003179085906200046f565b60405180910390a36200032d6000838362000331565b5050565b505050565b82805462000344906200049d565b90600052602060002090601f016020900481019282620003685760008555620003b3565b82601f106200038357805160ff1916838001178555620003b3565b82800160010185558215620003b3579182015b82811115620003b357825182559160200191906001019062000396565b50620003c1929150620003c5565b5090565b5b80821115620003c15760008155600101620003c6565b600060208284031215620003ee578081fd5b81516001600160a01b038116811462000405578182fd5b9392505050565b9485526020850193909352604084019190915260608301526001600160a01b0316608082015260a00190565b6020808252601f908201527f45524332303a206d696e7420746f20746865207a65726f206164647265737300604082015260600190565b90815260200190565b600082198211156200049857634e487b7160e01b81526011600452602481fd5b500190565b600281046001821680620004b257607f821691505b60208210811415620004d457634e487b7160e01b600052602260045260246000fd5b50919050565b61113780620004ea6000396000f3fe608060405234801561001057600080fd5b506004361061012c5760003560e01c8063715018a6116100ad578063a9059cbb11610071578063a9059cbb14610237578063d505accf1461024a578063dd62ed3e1461025d578063dd7f92d214610270578063f2fde38b146102835761012c565b8063715018a6146101ea5780637ecebe00146101f45780638da5cb5b1461020757806395d89b411461021c578063a457c2d7146102245761012c565b8063313ce567116100f4578063313ce5671461019f5780633644e515146101b4578063378dc3dc146101bc57806339509351146101c457806370a08231146101d75761012c565b806306fdde0314610131578063095ea7b31461014f57806318160ddd1461016f57806323b872dd1461018457806330adf81f14610197575b600080fd5b610139610296565b6040516101469190610cd0565b60405180910390f35b61016261015d366004610bfa565b610328565b6040516101469190610c6a565b610177610345565b6040516101469190610c75565b610162610192366004610b4e565b61034b565b6101776103e4565b6101a7610408565b6040516101469190611058565b61017761040d565b610177610413565b6101626101d2366004610bfa565b610422565b6101776101e5366004610afb565b610476565b6101f2610495565b005b610177610202366004610afb565b6104e0565b61020f6104f2565b6040516101469190610c56565b610139610501565b610162610232366004610bfa565b610510565b610162610245366004610bfa565b610589565b6101f2610258366004610b89565b61059d565b61017761026b366004610b1c565b610718565b6101f261027e366004610c23565b610743565b6101f2610291366004610afb565b610750565b6060600380546102a590611095565b80601f01602080910402602001604051908101604052809291908181526020018280546102d190611095565b801561031e5780601f106102f35761010080835404028352916020019161031e565b820191906000526020600020905b81548152906001019060200180831161030157829003601f168201915b5050505050905090565b600061033c6103356107be565b84846107c2565b50600192915050565b60025490565b6000610358848484610876565b6001600160a01b0384166000908152600160205260408120816103796107be565b6001600160a01b03166001600160a01b03168152602001908152602001600020549050828110156103c55760405162461bcd60e51b81526004016103bc90610ea6565b60405180910390fd5b6103d9856103d16107be565b8584036107c2565b506001949350505050565b7f6e71edae12b1b97f4d1f60370fef10105fa2faae0126114a169c64845d6126c981565b601290565b60065481565b6a5afd67f2dc0e1b2e00000081565b600061033c61042f6107be565b84846001600061043d6107be565b6001600160a01b03908116825260208083019390935260409182016000908120918b16815292529020546104719190611066565b6107c2565b6001600160a01b0381166000908152602081905260409020545b919050565b61049d6107be565b6001600160a01b03166104ae6104f2565b6001600160a01b0316146104d45760405162461bcd60e51b81526004016103bc90610eee565b6104de60006109a0565b565b60076020526000908152604090205481565b6005546001600160a01b031690565b6060600480546102a590611095565b6000806001600061051f6107be565b6001600160a01b039081168252602080830193909352604091820160009081209188168152925290205490508281101561056b5760405162461bcd60e51b81526004016103bc90611013565b61057f6105766107be565b858584036107c2565b5060019392505050565b600061033c6105966107be565b8484610876565b428410156105bd5760405162461bcd60e51b81526004016103bc90610fa9565b6006546001600160a01b038816600090815260076020526040812080549192917f6e71edae12b1b97f4d1f60370fef10105fa2faae0126114a169c64845d6126c9918b918b918b919087610610836110d0565b919050558a60405160200161062a96959493929190610c7e565b60405160208183030381529060405280519060200120604051602001610651929190610c3b565b60405160208183030381529060405280519060200120905060006001828686866040516000815260200160405260405161068e9493929190610cb2565b6020604051602081039080840390855afa1580156106b0573d6000803e3d6000fd5b5050604051601f1901519150506001600160a01b038116158015906106e65750886001600160a01b0316816001600160a01b0316145b6107025760405162461bcd60e51b81526004016103bc90610d23565b61070d8989896107c2565b505050505050505050565b6001600160a01b03918216600090815260016020908152604080832093909416825291909152205490565b61074d33826109f2565b50565b6107586107be565b6001600160a01b03166107696104f2565b6001600160a01b03161461078f5760405162461bcd60e51b81526004016103bc90610eee565b6001600160a01b0381166107b55760405162461bcd60e51b81526004016103bc90610dd8565b61074d816109a0565b3390565b6001600160a01b0383166107e85760405162461bcd60e51b81526004016103bc90610fcf565b6001600160a01b03821661080e5760405162461bcd60e51b81526004016103bc90610e1e565b6001600160a01b0380841660008181526001602090815260408083209487168084529490915290819020849055517f8c5be1e5ebec7d5bd14f71427d1e84f3dd0314c0f7b2291e5b200ac8c7c3b92590610869908590610c75565b60405180910390a3505050565b6001600160a01b03831661089c5760405162461bcd60e51b81526004016103bc90610f64565b6001600160a01b0382166108c25760405162461bcd60e51b81526004016103bc90610d53565b6108cd838383610adf565b6001600160a01b038316600090815260208190526040902054818110156109065760405162461bcd60e51b81526004016103bc90610e60565b6001600160a01b0380851660009081526020819052604080822085850390559185168152908120805484929061093d908490611066565b92505081905550826001600160a01b0316846001600160a01b03167fddf252ad1be2c89b69c2b068fc378daa952ba7f163c4a11628f55a4df523b3ef846040516109879190610c75565b60405180910390a361099a848484610adf565b50505050565b600580546001600160a01b038381166001600160a01b0319831681179093556040519116919082907f8be0079c531659141344cd1fd0a4f28419497f9722a3daafe3b4186f6b6457e090600090a35050565b6001600160a01b038216610a185760405162461bcd60e51b81526004016103bc90610f23565b610a2482600083610adf565b6001600160a01b03821660009081526020819052604090205481811015610a5d5760405162461bcd60e51b81526004016103bc90610d96565b6001600160a01b0383166000908152602081905260408120838303905560028054849290610a8c90849061107e565b90915550506040516000906001600160a01b038516907fddf252ad1be2c89b69c2b068fc378daa952ba7f163c4a11628f55a4df523b3ef90610acf908690610c75565b60405180910390a3610adf836000845b505050565b80356001600160a01b038116811461049057600080fd5b600060208284031215610b0c578081fd5b610b1582610ae4565b9392505050565b60008060408385031215610b2e578081fd5b610b3783610ae4565b9150610b4560208401610ae4565b90509250929050565b600080600060608486031215610b62578081fd5b610b6b84610ae4565b9250610b7960208501610ae4565b9150604084013590509250925092565b600080600080600080600060e0888a031215610ba3578283fd5b610bac88610ae4565b9650610bba60208901610ae4565b95506040880135945060608801359350608088013560ff81168114610bdd578384fd5b9699959850939692959460a0840135945060c09093013592915050565b60008060408385031215610c0c578182fd5b610c1583610ae4565b946020939093013593505050565b600060208284031215610c34578081fd5b5035919050565b61190160f01b81526002810192909252602282015260420190565b6001600160a01b0391909116815260200190565b901515815260200190565b90815260200190565b9586526001600160a01b0394851660208701529290931660408501526060840152608083019190915260a082015260c00190565b93845260ff9290921660208401526040830152606082015260800190565b6000602080835283518082850152825b81811015610cfc57858101830151858201604001528201610ce0565b81811115610d0d5783604083870101525b50601f01601f1916929092016040019392505050565b6020808252601690820152755941593a20494e56414c49445f5349474e415455524560501b604082015260600190565b60208082526023908201527f45524332303a207472616e7366657220746f20746865207a65726f206164647260408201526265737360e81b606082015260800190565b60208082526022908201527f45524332303a206275726e20616d6f756e7420657863656564732062616c616e604082015261636560f01b606082015260800190565b60208082526026908201527f4f776e61626c653a206e6577206f776e657220697320746865207a65726f206160408201526564647265737360d01b606082015260800190565b60208082526022908201527f45524332303a20617070726f766520746f20746865207a65726f206164647265604082015261737360f01b606082015260800190565b60208082526026908201527f45524332303a207472616e7366657220616d6f756e7420657863656564732062604082015265616c616e636560d01b606082015260800190565b60208082526028908201527f45524332303a207472616e7366657220616d6f756e74206578636565647320616040820152676c6c6f77616e636560c01b606082015260800190565b6020808252818101527f4f776e61626c653a2063616c6c6572206973206e6f7420746865206f776e6572604082015260600190565b60208082526021908201527f45524332303a206275726e2066726f6d20746865207a65726f206164647265736040820152607360f81b606082015260800190565b60208082526025908201527f45524332303a207472616e736665722066726f6d20746865207a65726f206164604082015264647265737360d81b606082015260800190565b6020808252600c908201526b1650564e881156141254915160a21b604082015260600190565b60208082526024908201527f45524332303a20617070726f76652066726f6d20746865207a65726f206164646040820152637265737360e01b606082015260800190565b60208082526025908201527f45524332303a2064656372656173656420616c6c6f77616e63652062656c6f77604082015264207a65726f60d81b606082015260800190565b60ff91909116815260200190565b60008219821115611079576110796110eb565b500190565b600082821015611090576110906110eb565b500390565b6002810460018216806110a957607f821691505b602082108114156110ca57634e487b7160e01b600052602260045260246000fd5b50919050565b60006000198214156110e4576110e46110eb565b5060010190565b634e487b7160e01b600052601160045260246000fdfea2646970667358221220292feaf7d8ad7c04a483889f4958a8863495b506ef73fa7853113101a3b7642c64736f6c63430008000033",
  "immutableReferences": {},
  "source": "import \"@openzeppelin/contracts/utils/math/SafeMath.sol\";\nimport \"@openzeppelin/contracts/token/ERC20/ERC20.sol\";\nimport \"@openzeppelin/contracts/access/Ownable.sol\";\n\npragma solidity >=0.6.12;\n\ncontract PartyToken is ERC20(\"PARTY\", \"PARTY\"), Ownable {\n    using SafeMath for uint256;\n\n    uint256 public constant initialSupply = 110000000000000000000000000;\n\n    bytes32 public DOMAIN_SEPARATOR;\n    bytes32 public constant PERMIT_TYPEHASH =\n        0x6e71edae12b1b97f4d1f60370fef10105fa2faae0126114a169c64845d6126c9;\n    mapping(address => uint256) public nonces;\n\n    constructor(address initialTotalSupplyHolder) public {\n        uint256 chainId;\n        assembly {\n            chainId := chainid()\n        }\n        DOMAIN_SEPARATOR = keccak256(\n            abi.encode(\n                keccak256(\n                    \"EIP712Domain(string name,string version,uint256 chainId,address verifyingContract)\"\n                ),\n                keccak256(bytes(name())),\n                keccak256(bytes(\"1\")),\n                chainId,\n                address(this)\n            )\n        );\n        _mint(initialTotalSupplyHolder, initialSupply);\n    }\n\n    // Burns the callers tokens\n    function burnOwnTokens(uint256 _amount) external {\n        _burn(msg.sender, _amount);\n    }\n\n    function permit(\n        address owner,\n        address spender,\n        uint256 value,\n        uint256 deadline,\n        uint8 v,\n        bytes32 r,\n        bytes32 s\n    ) external {\n        require(deadline >= block.timestamp, \"YAY: EXPIRED\");\n        bytes32 digest = keccak256(\n            abi.encodePacked(\n                \"\\x19\\x01\",\n                DOMAIN_SEPARATOR,\n                keccak256(\n                    abi.encode(\n                        PERMIT_TYPEHASH,\n                        owner,\n                        spender,\n                        value,\n                        nonces[owner]++,\n                        deadline\n                    )\n                )\n            )\n        );\n        address recoveredAddress = ecrecover(digest, v, r, s);\n        require(\n            recoveredAddress != address(0) && recoveredAddress == owner,\n            \"YAY: INVALID_SIGNATURE\"\n        );\n        _approve(owner, spender, value);\n    }\n}\n",
  "sourcePath": "/home/pedro/Documents/projects/avalabs/party-swap/token/contracts/PartyToken.sol",
  "compiler": {
    "name": "solc",
    "version": "0.8.0+commit.c7dfd78e.Emscripten.clang"
  },
  "schemaVersion": "3.4.1",
  "updatedAt": "2021-08-21T15:20:38.004Z",
  "networkType": "ethereum",
  "devdoc": {
    "kind": "dev",
    "methods": {
      "allowance(address,address)": {
        "details": "See {IERC20-allowance}."
      },
      "approve(address,uint256)": {
        "details": "See {IERC20-approve}. Requirements: - `spender` cannot be the zero address."
      },
      "balanceOf(address)": {
        "details": "See {IERC20-balanceOf}."
      },
      "decimals()": {
        "details": "Returns the number of decimals used to get its user representation. For example, if `decimals` equals `2`, a balance of `505` tokens should be displayed to a user as `5,05` (`505 / 10 ** 2`). Tokens usually opt for a value of 18, imitating the relationship between Ether and Wei. This is the value {ERC20} uses, unless this function is overridden; NOTE: This information is only used for _display_ purposes: it in no way affects any of the arithmetic of the contract, including {IERC20-balanceOf} and {IERC20-transfer}."
      },
      "decreaseAllowance(address,uint256)": {
        "details": "Atomically decreases the allowance granted to `spender` by the caller. This is an alternative to {approve} that can be used as a mitigation for problems described in {IERC20-approve}. Emits an {Approval} event indicating the updated allowance. Requirements: - `spender` cannot be the zero address. - `spender` must have allowance for the caller of at least `subtractedValue`."
      },
      "increaseAllowance(address,uint256)": {
        "details": "Atomically increases the allowance granted to `spender` by the caller. This is an alternative to {approve} that can be used as a mitigation for problems described in {IERC20-approve}. Emits an {Approval} event indicating the updated allowance. Requirements: - `spender` cannot be the zero address."
      },
      "name()": {
        "details": "Returns the name of the token."
      },
      "owner()": {
        "details": "Returns the address of the current owner."
      },
      "renounceOwnership()": {
        "details": "Leaves the contract without owner. It will not be possible to call `onlyOwner` functions anymore. Can only be called by the current owner. NOTE: Renouncing ownership will leave the contract without an owner, thereby removing any functionality that is only available to the owner."
      },
      "symbol()": {
        "details": "Returns the symbol of the token, usually a shorter version of the name."
      },
      "totalSupply()": {
        "details": "See {IERC20-totalSupply}."
      },
      "transfer(address,uint256)": {
        "details": "See {IERC20-transfer}. Requirements: - `recipient` cannot be the zero address. - the caller must have a balance of at least `amount`."
      },
      "transferFrom(address,address,uint256)": {
        "details": "See {IERC20-transferFrom}. Emits an {Approval} event indicating the updated allowance. This is not required by the EIP. See the note at the beginning of {ERC20}. Requirements: - `sender` and `recipient` cannot be the zero address. - `sender` must have a balance of at least `amount`. - the caller must have allowance for ``sender``'s tokens of at least `amount`."
      },
      "transferOwnership(address)": {
        "details": "Transfers ownership of the contract to a new account (`newOwner`). Can only be called by the current owner."
      }
    },
    "version": 1
  },
  "userdoc": {
    "kind": "user",
    "methods": {},
    "version": 1
  }
}